0001GABRIEL                            000000000000112202203aaaaaaaaaaaaaaaaaaaaaaaaaaaaaaaaaaaaaaaaaaaaaaaaaaaaaaaaaaaa
0122HELLO                              111111111111202196005
0014ADILSON JR                         222222222223101199907
0144JALIM BROLEI                       333333333331509200509
